:100000000C9434000C9441000C943E000C943E007F
:100010000C943E000C943E000C943E000C943E0068
:100020000C943E000C943E000C943E000C943E0058
:100030000C943E000C943E000C943E000C943E0048
:100040000C943E000C943E000C943E000C943E0038
:100050000C943E000C943E000C943E000C943E0028
:100060000C943E000C943E0011241FBECFEFD8E04C
:10007000DEBFCDBF0E944C000C9456000C94400093
:1000800018951F920F920FB60F92112400000F9037
:100090000FBE0F901F901895000083B7816083BF3B
:1000A00088950000989580E090E00895F894FFCF3F
:00000001FF
