:100000000C9434000C9440000C944B000C943E0073
:100010000C943E000C943E000C943E000C943E0068
:100020000C943E000C943E000C943E000C943E0058
:100030000C943E000C943E000C943E000C943E0048
:100040000C943E000C943E000C943E000C943E0038
:100050000C943E000C943E000C943E000C943E0028
:100060000C943E000C943E0011241FBECFEFD8E04C
:10007000DEBFCDBF0E9473000C9478000C9400008A
:100080001F920F920FB60F92112488950F900FBEFA
:100090000F901F9018951F920F920FB60F92112478
:1000A000A8950F900FBE0F901F90189520E030E09C
:1000B00028173907BCF442E44A95F1F700C042E43E
:1000C0004A95F1F700C042E44A95F1F700C042E4D6
:1000D0004A95F1F700C042E44A95F1F700C02F5F5E
:1000E0003F4FE6CF08958895989580E090E0089579
:0400F000F894FFCFB2
:00000001FF
