:100000000C9434000C943E000C943E000C943E0082
:100010000C943E000C943E000C943E000C943E0068
:100020000C943E000C943E000C943E000C943E0058
:100030000C943E000C943E000C943E000C943E0048
:100040000C943E000C943E000C943E000C943E0038
:100050000C943E000C943E000C943E000C943E0028
:100060000C943E000C943E0011241FBECFEFD8E04C
:10007000DEBFCDBF0E9452000C9457000C940000CC
:1000800020E030E02817390764F44AE050E061E2EC
:100090006A95F1F7000041505109C9F72F5F3F4FB2
:1000A000F1CF08958895989580E090E00895F894B0
:0200B000FFCF80
:00000001FF
