:100000000C9434000C9446000C9446000C9446006A
:100010000C9446000C9446000C9446000C94460048
:100020000C9446000C9446000C9446000C94460038
:100030000C9446000C9446000C9446000C94460028
:100040000C9446000C9446000C9446000C94460018
:100050000C9446000C9446000C9446000C94460008
:100060000C9446000C94460011241FBECFEFD8E03C
:10007000DEBFCDBF21E0A0E0B1E001C01D92A630FF
:10008000B207E1F70E9448000C9490000C94000025
:10009000609102017091030181E690E00E9454009A
:1000A000989580E090E008950F931F93CF93DF938E
:1000B000FB01238121FD03C08FEF9FEF2CC022FFA6
:1000C00016C046815781248135814217530744F475
:1000D000A081B1819D012F5F3F4F318320838C939D
:1000E000268137812F5F3F4F3783268314C08B01D2
:1000F000EC01FB010084F185E02D0995892BE1F6E7
:10010000D80116968D919C911797019617969C93FE
:100110008E931697CE01DF91CF911F910F91089585
:04012000F894FFCF81
:00000001FF
