:100000000C9434000C943E000C943E000C943E0082
:100010000C943E000C943E000C943E000C943E0068
:100020000C943E000C943E000C943E000C943E0058
:100030000C943E000C943E000C943E000C943E0048
:100040000C943E000C943E000C943E000C943E0038
:100050000C943E000C9441000C943E000C943E0025
:100060000C943E000C943E0011241FBECFEFD8E04C
:10007000DEBFCDBF0E944C000C9450000C94400099
:1000800018951F920F920FB60F92112400000F9037
:100090000FBE0F901F901895000080E090E008952B
:0400A000F894FFCF02
:00000001FF
