:100000000C9434000C9449000C9449000C94490061
:100010000C9449000C9449000C9449000C9449003C
:100020000C9449000C9449000C9449000C9449002C
:100030000C9449000C9449000C9449000C9449001C
:100040000C9449000C9449000C9449000C9449000C
:100050000C9449000C9449000C9449000C944900FC
:100060000C9449000C94490011241FBECFEFD8E036
:10007000DEBFCDBF11E0A0E0B1E0EAEBF0E002C0EE
:1000800005900D92AE30B107D9F70E944B000C9449
:100090005B000C940000E0E0F1E08191882319F00E
:1000A00080936100FACF809360008F5F92E09A9511
:0A00B000F1F700C0F8CFF894FFCF7D
:0E00BA0048656C6C6F20776F726C640A0000F2
:00000001FF
