:100000000C9475000C948A000C948A000C948A005D
:100010000C948A000C948A000C948A000C948A0038
:100020000C948A000C948A000C948A000C948A0028
:100030000C948A000C948A000C948A000C948A0018
:100040000C948A000C948A000C948A000C948A0008
:100050000C948A000C948A000C948A000C948A00F8
:100060000C948A000C948A0007634236B79BD8A789
:100070001A39685618AEBAAB558C1D3CB7CC5763CD
:10008000BD6DEDFD753EF6177231BF000000803F7B
:1000900008000000BE922449123EABAAAA2ABECD97
:1000A000CCCC4C3E00000080BEABAAAAAA3E000009
:1000B0000000BF000000803F000000000008417801
:1000C000D3BB4387D1133D190E3CC3BD4282AD2B38
:1000D0003E68EC8276BED98FE1A93E4C80EFFFBE30
:1000E00001C4FF7F3F000000000011241FBECFEFBE
:1000F000D8E0DEBFCDBF11E0A0E0B1E0E0E0FAE083
:1001000002C005900D92A231B107D9F70E942101DA
:100110000C94FE040C9400007F928F929F92AF92F9
:10012000BF92CF92DF92EF92FF920F931F93CF93E4
:10013000DF93CDB7DEB76E0182E1C80ED11CE12C92
:10014000F12C8AE0882E912C9DE2792EF701E05067
:10015000FF4F8081882309F466C0853231F0809397
:1001600061008FEFE81AF80AF1CFF701EF5FFE4F59
:100170008081843609F048C0F6010081118182E057
:10018000C80ED11C17FF06C0709261001195019531
:10019000110903C00115110571F0C80120E030E01C
:1001A000B4010E944101CB012F5F3F4F0097C1F77F
:1001B000922F832F02C091E080E0A92EB82E81E01B
:1001C000A81AB108E8F0B5010B2C000C880B990BAC
:1001D0000E94A1019B01AC0160E070E080E291E42B
:1001E0000E9405020E946901AB01BC01C801BA016D
:1001F0000E944101605D7F4F609361008C01DFCF01
:1002000082E0E80EF11CA2CF8337D1F7F60101900E
:10021000F081E02D82E0C80ED11C8191882381F30A
:1002200080936100FACFDF91CF911F910F91FF90E2
:10023000EF90DF90CF90BF90AF909F908F907F9086
:1002400008951F921F92C0E0D1E0DF93CF930E94E8
:100250008C001F9281E08F93DF93CF930E948C00DC
:100260008DB79EB708960FB6F8949EBF0FBE8DBF90
:1002700080E0809360008F5F92E09A95F1F700C074
:10028000F8CF97FB072E16F4009407D077FD09D01E
:100290000E94550107FC05D03EF4909581959F4F33
:1002A0000895709561957F4F0895AA1BBB1B51E17E
:1002B00007C0AA1FBB1FA617B70710F0A61BB70BD6
:1002C000881F991F5A95A9F780959095BC01CD017B
:1002D00008950E9470016894B1110C94FF01089573
:1002E0000E94E40188F09F5798F0B92F9927B751E1
:1002F000B0F0E1F0660F771F881F991F1AF0BA95CA
:10030000C9F714C0B13091F00E94FE01B1E0089528
:100310000C94FE01672F782F8827B85F39F0B93F1A
:10032000CCF3869577956795B395D9F73EF490957C
:100330008095709561957F4F8F4F9F4F0895E894FA
:1003400009C097FB3EF490958095709561957F4F1D
:100350008F4F9F4F9923A9F0F92F96E9BB279395CB
:10036000F695879577956795B795F111F8CFFAF4DB
:10037000BB0F11F460FF1BC06F5F7F4F8F4F9F4F0C
:1003800016C0882311F096E911C0772321F09EE86A
:10039000872F762F05C0662371F096E8862F70E0D0
:1003A00060E02AF09A95660F771F881FDAF7880FAA
:1003B0009695879597F9089557FD9058440F551FC6
:1003C00059F05F3F71F04795880F97FB991F61F0D7
:1003D0009F3F79F087950895121613061406551F4E
:1003E000F2CF4695F1DF08C0161617061806991FBA
:1003F000F1CF86957105610508940895E894BB27AF
:1004000066277727CB0197F90895FA01EE0FFF1FB2
:10041000309621053105A1F16115710561F480382F
:10042000BFE39B0749F168949038810561F08038FB
:10043000BFEF9B0741F099234AF5FF3FE1053105E6
:10044000210519F1E8940894E795D901AA2329F424
:10045000AB2FBE2FF85FD0F310C0FF5F70F4A695EE
:10046000E0F7F73950F019F0FF3A38F49F779F938F
:100470000DD00F9007FC9058089546F00C9495020B
:1004800060E070E080E89FE308954FE79F775F9317
:100490004F933F932F930E9409032F913F914F91C8
:1004A0005F910E9485030C945D0229F416F00C9470
:1004B0008F020C94FE010C9495020E94E401A8F3B3
:1004C0009638A0F707F80F92E8942BE33AEA48EB46
:1004D0005FE70E949B030F920F920F924DB75EB79A
:1004E0000F920E945103E8E6F0E00E9498024F91BB
:1004F0005F91EF91FF91E595EE1FFF1F49F0FE57C9
:10050000E0684427EE0F441FFA95E1F74195550B3B
:100510000E94CB020F9007FE0C94BF02089597F93A
:100520009F6780E870E060E008959FEF80EC089599
:10053000DF93CF931F930F93FF92EF92DF927B0194
:100540008C01689406C0DA2EEF010E949803FE0128
:10055000E894A5912591359145915591A6F3EF0128
:100560000E940A04FE019701A801DA9469F7DF905E
:10057000EF90FF900F911F91CF91DF9108959B0114
:10058000AC0160E070E080E89FE30C945F040C94A1
:100590008F020C94D1040E94E401D8F39923C9F38B
:1005A000940F511DA3F39150504094F059F08823BB
:1005B00032F0660F771F881F91505040C1F79E3F61
:1005C00051052CF7880F911D9695879597F90895F9
:1005D0005F3FACF0983E9CF0BB278695779567957A
:1005E000B79508F4B1609395C1F7BB0F58F711F4B4
:1005F00060FFE8CF6F5F7F4F8F4F9F4FE3CF0C942B
:10060000FF0116F00C94D1040C94950268940C949C
:100610008F020E94E401A8F39923C1F3AEF3DF93A4
:10062000CF931F930F93FF92C92FDD2788232AF0C2
:100630002197660F771F881FDAF720E030E040E847
:100640005FEB9FE3883920F0803E38F021968F776A
:100650000E94F303E0E9F0E004C00E94F303EDEB35
:10066000F0E00E9498028B01BE01EC01FB2E6F5757
:1006700071097595771F880B990B0E94A10128E1DC
:1006800032E741E35FE30E949803AF2D9801AE018A
:10069000FF900F911F91CF91DF910E940A040C945B
:1006A000ED04FA01DC01AA0FBB1F9B01AC01BF578F
:1006B00028F4222733274427507820C0B75190F4DC
:1006C000AB2F0024469537952795011CA395D2F3AF
:1006D000002071F0220F331F441FB395DAF30ED0C0
:1006E0000C94F20361307105A0E88A07B94630F432
:1006F0009B01AC016627772788279078309621F0F8
:10070000208331834283538308950E9498030C947D
:10071000ED040E94DF0438F00E94E60420F09523E7
:1007200011F00C948F020C94950211240C94FF018B
:100730000E94DC0170F3959FC1F3950F50E0551FA7
:10074000629FF001729FBB27F00DB11D639FAA2726
:10075000F00DB11DAA1F649F6627B00DA11D661F75
:10076000829F2227B00DA11D621F739FB00DA11D96
:10077000621F839FA00D611D221F749F3327A00D50
:10078000611D231F849F600D211D822F762F6A2FEC
:1007900011249F5750409AF0F1F088234AF0EE0F51
:1007A000FF1FBB1F661F771F881F91505040A9F77E
:1007B0009E3F510580F00C948F020C94FF015F3F27
:1007C000E4F3983ED4F3869577956795B795F795BA
:1007D000E7959F5FC1F7FE2B880F911D9695879532
:1007E00097F908955058BB27AA270E940A040C9431
:1007F000ED040E94DF0438F00E94E60420F039F492
:100800009F3F19F426F40C9495020EF4E095E7FB53
:100810000C948F02E92F0E94DC0158F3BA1762078B
:1008200073078407950720F079F4A6F50C94FE0170
:100830000EF4E0950B2EBA2FA02D0B01B9019001FB
:100840000C01CA01A0011124FF27591B99F0593F3F
:1008500050F4503E68F11A16F040A22F232F342F87
:100860004427585FF3CF469537952795A795F040D5
:100870005395C9F77EF41F16BA0B620B730B840BEA
:10088000BAF09150A1F0FF0FBB1F661F771F881FA2
:10089000C2F70EC0BA0F621F731F841F48F48795FA
:1008A00077956795B795F7959E3F08F0B0CF9395EC
:1008B000880F08F09927EE0F9795879508950E9465
:1008C00073040C94ED040E94E60458F00E94DF04C7
:1008D00040F029F45F3F29F00C948F0251110C94E1
:1008E000FF010C9495020E94DC0168F39923B1F397
:1008F000552391F3951B550BBB27AA276217730746
:10090000840738F09F5F5F4F220F331F441FAA1FD9
:10091000A9F335D00E2E3AF0E0E832D09150504095
:10092000E695001CCAF72BD0FE2F29D0660F771F43
:10093000881FBB1F261737074807AB07B0E809F029
:10094000BB0B802DBF01FF2793585F4F3AF09E3FAE
:10095000510578F00C948F020C94FF015F3FE4F393
:10096000983ED4F3869577956795B795F7959F5FF1
:10097000C9F7880F911D9695879597F90895E1E03D
:10098000660F771F881FBB1F621773078407BA079C
:1009900020F0621B730B840BBA0BEE1F88F7E095F7
:1009A00008959F3F31F0915020F487957795679592
:1009B000B795880F911D9695879597F9089500240E
:1009C0000A941616170618060906089500240A94B4
:1009D00012161306140605060895092E0394000C3A
:1009E00011F4882352F0BB0F40F4BF2B11F460FFC9
:1009F00004C06F5F7F4F8F4F9F4F0895F894FFCFD4
:100A000048656C6C6F20576F726C64212025640AF6
:020A10000000E4
:00000001FF
