:100000000C9434000C9451000C9451000C94510049
:100010000C9451000C9451000C9451000C9451001C
:100020000C9451000C9451000C9451000C9451000C
:100030000C9451000C9451000C9451000C945100FC
:100040000C9451000C9451000C9451000C945100EC
:100050000C9451000C9451000C9451000C945100DC
:100060000C9451000C94510011241FBECFEFD8E026
:10007000DEBFCDBF11E0A0E0B1E0EAE1F1E002C0F7
:1000800005900D92A630B107D9F721E0A6E0B1E0C6
:1000900001C01D92AC30B207E1F70E9453000C94EE
:1000A0008B000C94000080E091E00E945B0098952A
:1000B00080E090E008950F931F93CF93DF93E0913A
:1000C0000801F0910901238121FF1BC08C01D0E0C0
:1000D000C0E0F80181918F016091080170910901E0
:1000E000DB011896ED91FC911997882331F0099561
:1000F000892B79F3DFEFCFEFECCF8AE00995892BDD
:1001000019F08FEF9FEF02C08D2F9C2FDF91CF91C1
:0A0110001F910F910895F894FFCF9E
:06011A0048656C6C6F00EB
:00000001FF
