:100000000C9434000C9440000C943E000C943E0080
:100010000C943E000C943E000C943E000C943E0068
:100020000C943E000C943E000C943E000C943E0058
:100030000C943E000C943E000C943E000C943E0048
:100040000C943E000C943E000C943E000C943E0038
:100050000C943E000C943E000C943E000C943E0028
:100060000C943E000C943E0011241FBECFEFD8E04C
:10007000DEBFCDBF0E944B000C945D000C940000CD
:100080001F920F920FB60F921124A8950F900FBEDA
:100090000F901F9018959DE088E10FB6F894A895F1
:1000A000809360000FBE9093600083B7816083BF30
:0E00B0008895989580E090E00895F894FFCF31
:00000001FF
